:100000000C9446000C9466000C9466000C946600F8
:100010000C9466000C9466000C9466000C946600C8
:100020000C9466000C9466000C9466000C946600B8
:100030000C9466000C9466000C9466000C946600A8
:100040000C9466000C9466000C9466000C94660098
:100050000C9466000C9466000C9466000C94660088
:100060000C9466000C9466000C9466000C94660078
:100070000C9466000C9466000C9466000C94660068
:100080000C9466000C9466000C94660011241FBE4C
:10009000CFEFD0E4DEBFCDBF11E0A0E0B1E0E6EDF0
:1000A000F1E000E00BBF02C007900D92A030B10755
:1000B000D9F71BBE11E0A0E0B1E001C01D92A03055
:1000C000B107E1F70E94D2000C94E9000C94000003
:1000D0009C01220F331F280F391F220F331F220FBD
:1000E000331F220F331F820F931F892F869586950A
:1000F00090E0089580EC80937C0087E880937A00FC
:100100000895ECE7F0E090819083833009F184302A
:1001100028F4813089F08230A8F409C0853021F1BB
:100120008530E0F0863031F1873079F529C0ECE791
:10013000F0E08081808329C0ECE7F0E0808181607D
:10014000808323C0ECE7F0E08081826080831DC063
:10015000ECE7F0E080818360808317C0ECE7F0E09B
:1001600080818460808311C0ECE7F0E0808185604D
:1001700080830BC0ECE7F0E080818660808305C05F
:10018000ECE7F0E0808187608083EAE7F0E080813F
:1001900080648083808186FDFDCF8091780090917E
:1001A00079000895389A0E947A0080E00E948100C8
:1001B0008735910508F0409A8536910520F0409AE0
:1001C00028B128B9409A8235910578F788B188B965
:0601D000ECCFF894FFCF14
:00000001FF
