:100000000C9446000C9466000C9466000C946600F8
:100010000C9466000C9466000C9466000C946600C8
:100020000C9466000C9466000C9466000C946600B8
:100030000C9466000C9466000C9466000C946600A8
:100040000C9466000C9466000C9466000C94660098
:100050000C9466000C9466000C9466000C94660088
:100060000C9466000C9466000C9466000C94660078
:100070000C9466000C9466000C9466000C94660068
:100080000C9466000C9466000C94660011241FBE4C
:10009000CFEFD0E4DEBFCDBF11E0A0E0B1E0E4EFF0
:1000A000F0E000E00BBF02C007900D92A030B10756
:1000B000D9F71BBE11E0A0E0B1E001C01D92A03055
:1000C000B107E1F70E9468000C9478000C940000DE
:1000D00082E087B991E088B1892788B92FE73FE4AA
:1000E00042E1215030404040E1F700C00000F3CF32
:0400F000F894FFCFB2
:00000001FF
