:10000000B4C00000D0C00000CEC00000CCC00000D2
:10001000CAC00000C8C00000C6C00000C4C00000C4
:10002000C2C00000C0C00000BEC00000BCC00000D4
:10003000BAC00000B8C00000B6C00000B4C00000E4
:10004000B2C00000B0C00000AEC00000ACC00000F4
:10005000AAC00000A8C00000A6C00000A4C0000004
:10006000A2C00000A0C000009EC000009CC0000014
:100070009AC0000098C0000096C0000094C0000024
:1000800092C0000090C000008EC000004854545040
:100090002F312E3020323030204F4B0D0A436F6EFF
:1000A00074656E742D547970653A20746578742F78
:1000B00068746D6C0D0A507261676D613A206E6FE5
:1000C0002D63616368650D0A0D0A003C68313E329C
:1000D0003030204F4B3C2F68313E00485454502F55
:1000E000312E3020323030204F4B0D0A436F6E746A
:1000F000656E742D547970653A20746578742F6834
:10010000746D6C0D0A507261676D613A206E6F2DCF
:1001100063616368650D0A0D0A00485454502F311D
:100120002E302034303120556E617574686F7269DD
:100130007A65640D0A436F6E74656E742D54797020
:10014000653A20746578742F68746D6C0D0A0D0A19
:100150003C68313E34303120556E617574686F7281
:10016000697A65643C2F68313E0011241FBECFEFD1
:10017000D0E4DEBFCDBF11E0A0E0B1E0E2E3F5E105
:1001800000E00BBF02C007900D92AA3BB107D9F760
:1001900023E0AAEBB1E001C01D92A53CB207E1F754
:1001A00084D00C94970A2CCFE1EBF0E08081816041
:1001B0008083E0EBF0E0808181688083579A089526
:1001C00080E880937C0087E880937A000895ECE7CC
:1001D000F0E0908190838330F1F020F4813079F069
:1001E000A0F408C0853019F1E0F0863031F1873095
:1001F00079F529C0ECE7F0E08081808329C0ECE745
:10020000F0E080818160808323C0ECE7F0E08081B2
:10021000826080831DC0ECE7F0E080818360808392
:1002200017C0ECE7F0E080818460808311C0ECE7C8
:10023000F0E08081856080830BC0ECE7F0E0808196
:100240008660808305C0ECE7F0E080818760808372
:10025000EAE7F0E0808180648083808186FDFDCFC5
:100260002091780030917900822F932F089580E0BB
:10027000AEDF96958795969587959C013327822FBB
:10028000932F089525E3829FC001112464E670E056
:1002900053D6862F08958091BA019091BB010196A3
:1002A0009093BB018093BA010895CF93DF93CDB7AC
:1002B000DEB7C759D1090FB6F894DEBF0FBECDBF68
:1002C0007FDF72DF80E091E0CCD12FEF31EE84E070
:1002D000215030408040E1F700C0000066E774E044
:1002E00084E1A6D19FEFE1EEF4E09150E040F040D0
:1002F000E1F700C0000066E071E080E091E024D505
:1003000080E590E032D58BE491E07ED58FEF80934D
:10031000B3000F2EF1E28F2EF1E09F2EF02D44243A
:100320004394512C4C0E5D1E642C352C9E01295F8C
:100330003F4FCD56DF4F39832883C359D0406CEBF4
:1003400071E084EF91E048D2BC018CEB91E061D583
:100350007C018DDF8C01C956DF4F8883C759D0409F
:1003600091DF282EC8019927CB56DF4F99838883C8
:10037000C559D04080E090E0712CCB56DF4F2881EA
:100380003981C559D0407394039628173907D8F797
:10039000E114F104A1F2B70164547E4F44E050E04F
:1003A0008CE091E0F0D5282F392F232B71F04CE809
:1003B00050E060E070E08CEB91E030D44BEC50E02A
:1003C000BC018CEB91E02AD47C01B70160547E4FD4
:1003D0004AE050E081E191E0D6D5282F392F232B38
:1003E00009F090C000E010E09EE0E90EF11C0F2E35
:1003F000FCEBAF2EF1E0BF2EF02DAE0CBF1CECE1FC
:10040000F1E0E9831F930F939F928F925F924F9237
:10041000C8D5670145E050E0662D732DC501B3D501
:10042000282F392F0F900F900F900F900F900F9053
:10043000232B21F4702EE3EBF0E000830F5F1F4FBE
:100440000115F1E01F07D9F6B60164547E4F45E06F
:1004500050E088E291E097D5282F392F232B49F4DB
:10046000C956DF4F8881C759D0408C59E3EBF0E083
:1004700080838091B1039091B20301969093B2036F
:100480008093B1034BED50E060E070E08CEB91E0C5
:10049000C5D38C01CD56DF4FE881F981C359D040D7
:1004A0002CE811922A95E9F7CA56DF4F3881C659D0
:1004B000D0403F93CB56DF4F8881C559D0408F93B2
:1004C0001F927F921F922F92EEE2F1E0FF93EF9343
:1004D000CC56DF4F3881C459D0403F93CD56DF4FC3
:1004E0008881C359D0408F935CD5AE01495F5F4F7F
:1004F000B8018CEB91E0C6D30FB6F894DEBF0FBE07
:10050000CDBF07C04AE151E060E070E08CEB91E0C4
:1005100085D3BC018CEB91E061D411CF2C98962F40
:100520009F71892B8EBD0DB407FEFDCF1EBC0DB48F
:1005300007FEFDCF662324F41EBC0DB407FEFDCFDD
:100540002C9A8EB508952C986F71862B8EBD0DB4A4
:1005500007FEFDCF4EBD0DB407FEFDCF2C9A0895CA
:10056000FB012C982AE32EBD0DB407FEFDCF0097AA
:1005700059F08E0F9F1F1EBC0DB407FEFDCF2EB588
:100580002193E817F907B9F710822C9A0895FB0117
:100590002C982AE72EBD0DB407FEFDCF08C08E0FA4
:1005A0009F1F21912EBD0DB407FEFDCF03C0009704
:1005B000B1F703C0E817F907A1F72C9A08951F9324
:1005C000CF93DF93182F1076C12FD0E02091B30383
:1005D00030E0C217D307A1F043E06FE180EAB3DF58
:1005E000AE01559547955595479555954795559520
:1005F0004795559547956FE180E8A5DF1093B303C4
:10060000DF91CF911F910895CF93C82FD8DF6C2F22
:1006100080E084DFCF910895CF93DF93C82FD62F4A
:10062000CEDF4D2F6C2F80E48EDFDF91CF910895C8
:10063000CF93DF93D62FC72F682F84EDEDDF6D2F7B
:1006400086EDEADF6C2F87EDE7DFC8E203C08C2F71
:100650008A95F1F78AEED8DF80FDF9CFDF91CF914F
:100660000895CF93DF93EC01249A2C9A84B1806A89
:1006700084B9269A2D9A2F9A80E58CBD8DB581601C
:100680008DBD4FEF60E08FEF5EDF80E090E001977F
:10069000F1F71092B5031092B40360E088E0BCDF7C
:1006A00060E089E0B9DF60E08CE0B6DF60E08DE01B
:1006B000B3DF6FEF8AE0B0DF69E18BE0ADDF60E0D0
:1006C00084E0AADF6AE185E0A7DF6FEF86E0A4DFC0
:1006D0006FE187E0A1DF60EB88E39EDF6FE388E2F4
:1006E0009BDF60E389E298DF69EF80E395DF67EFE6
:1006F00081E392DF6DE080EC8FDF60E081EC8CDFE6
:1007000042E362EC80E81FDF62E186EC85DF6CE0AB
:1007100087EC82DF62E184EC7FDF6CED8AEC7CDFCA
:1007200065E08BEC79DF688184EE76DF698185EEA8
:1007300073DF6A8182EE70DF6B8183EE6DDF6C8127
:1007400080EE6ADF6D8181EE67DF60E071E080E15D
:100750006FDF8FE134DF40EC6BE180E8F4DE44E0F2
:100760006FE180E8F0DEDF91CF9108950F931F9342
:10077000CF93DF93EC018B010CC08CE145DF81FF4F
:1007800008C040E86FE180E8DEDE40E86FE180EA23
:10079000DADE6FE180E0C2DE83FDEFCF60E082E071
:1007A0003BDF6AE183E038DF6C2F86E035DFCE0186
:1007B000965E692F87E030DF40E060E08AE7C3DEC5
:1007C000B801CE01E4DE48E06FE180E8BCDEDF91F5
:1007D000CF911F910F910895AF92BF92CF92DF9268
:1007E000EF92FF920F931F93CF93DF93EC017B0166
:1007F00089E30ADF882309F463C00091B4031091F0
:10080000B503602F80E008DF612F772767FD7A95B9
:1008100081E002DF60E08AE381DE182F60E08AE396
:100820007DDE382F20E0C901812B8C011093B503A8
:100830000093B40360E08AE371DEB82E60E08AE3DF
:100840006DDEA82E60E08AE369DEC82ED12C60E060
:100850008AE364DE382F20E02C293D2927FF10C0D1
:10086000AE01415051093A2D20E0E901CB292497EE
:100870004C175D0708F4EA01B701CE0171DE02C032
:10088000C0E0D0E0780191E0E91AF108E1148AE1D2
:10089000F8063CF06FEF8CE0BFDE69E18DE0BCDE76
:1008A0000AC0602F61508CE0B7DE6F2D772767FD9F
:1008B0007A958DE0B1DE40E46EE180E844DE02C06E
:1008C000C0E0D0E08C2F9D2FDF91CF911F910F9131
:1008D000FF90EF90DF90CF90BF90AF900895FF9280
:1008E0000F931F93CF93DF93EB01413051F4AB0192
:1008F0004850510960E070E04F5E5F4F6F4F7F4F8F
:100900000FC0423051F4AB014850510960E070E033
:100910004A5F5F4F6F4F7F4F03C040E050E0BA0126
:10092000C230D105F8F0DE01FC01008110E020E0CA
:1009300030E0322F212F102F0027F1800F29400F98
:10094000511F621F731F32961297A230B10568F7CC
:100950009E01225031092E7F2E5F3F4F820F931F41
:10096000C170DD27CD2B69F0FC01808190E0A0E013
:10097000B0E0BA2FA92F982F8827480F591F6A1F58
:100980007B1FCB01AA27BB270097A105B10569F002
:1009900066277727480F591F6A1F7B1FCB01AA279D
:1009A000BB270097A105B10599F740955095842F75
:1009B000952FDF91CF911F910F91FF900895009790
:1009C00041F026E0FC01A6EBB3E001900D922A95E0
:1009D000E1F70895FC0169327105E8F084858830FB
:1009E000E1F485858630D9F496A18091BC039813F3
:1009F00018C097A18091BD03981315C090A5809150
:100A0000BE03981312C081E021A59091BF0329175E
:100A100069F080E0089580E0089580E0089580E026
:100A2000089580E0089580E0089580E00895FC0135
:100A30006A32710500F184858830F9F48585811169
:100A40001EC086858534E9F4968D8091BC03981389
:100A50001AC0978D8091BD03981317C090A1809103
:100A6000BE03981314C081E021A19091BF03291700
:100A700079F080E0089580E0089580E0089580E0B6
:100A8000089580E0089580E0089580E0089580E072
:100A90000895CF93DF93EC01A6EBB3E0FC0136960B
:100AA0008CEB93E0208129932D912193A817B9070E
:100AB000C9F7DF91CF910895CF93DF93EC01188EA2
:100AC000198E80E48C8B1D8A8E8B40E064E170E08F
:100AD000CE010E9604DF988F898FDF91CF91089514
:100AE000CF93DF93EC016E96ACEBB3E0FC017A960A
:100AF00020EC33E0408149934D914193A217B30715
:100B0000C9F7DADFDF91CF910895FC01BA96DC01D5
:100B10009E9686962291620F711D2E916C934423AE
:100B200011F0208301C01082672F7727E817F9079B
:100B300089F70895CF93DF93EC018CA19AA19CA330
:100B40008AA38DA19BA19DA38BA3CE01DEDF1AAA50
:100B50001BAA80E58EA7DF91CF9108950F931F9375
:100B6000CF93DF938C0195DFF801148A82E0858BA7
:100B7000E801A096A6EBB3E076968CEB93E020819B
:100B800029932D912193A817B907C9F7E801A696D3
:100B9000ACEBB3E0F8017C9680EC93E020812993E4
:100BA0002D912193A817B907C9F7B8018AE290E0FF
:100BB000DDDDDF91CF911F910F9108950F931F936A
:100BC000CF93DF93EC018B0164DFCE0189DF1AA2A2
:100BD0008CA1883F18F09DA19F5F9DA3885F8CA387
:100BE000BE01C801C3DDDF91CF911F910F91089520
:100BF000FC01308920E08189282B2451310986A508
:100C000082958F7094E0899F201931091124332334
:100C100014F420E030E0822F932F0895CF93DF93D8
:100C2000C42FD52FFE014491442389F0DB01D696D1
:100C3000A80FB91F9B014D932F5F3F4FF901E61B92
:100C4000F70BEC0FFD1F44914111F5CF01C09B0143
:100C5000822F932FDF91CF910895222381F0E42FEB
:100C6000F52FDB01D696A80FB91F822F91919D9386
:100C70008150E1F76F5F7F4F2150620F711D862F0A
:100C8000972F0895E42FF52FDF010D900020E9F74D
:100C900011979D012E1B3F0BE0CFFF920F931F93E7
:100CA000CF93DF93EC018B01F42EF3DE8F2D806167
:100CB0008FA784E0F81205C041E0B801CE013ADF09
:100CC00009C00115110511F401E010E041E0B8017F
:100CD000CE0130DF188A88E2898BCE0101DF84E003
:100CE00088AB19AA42E06CE170E0CE014A96F7DDCC
:100CF0009AAB8BABBE0186E390E038DDDF91CF91FC
:100D00001F910F91FF9008950F931F93CF93DF933F
:100D1000EC018B01CB018896988B898BCE01CCDEC0
:100D20001AAA1BAAB801645E7F4F42E0CE014A9620
:100D3000D6DD9AAB8BABBE01C801C69617DDDF913D
:100D4000CF911F910F9108956115710551F0DB014D
:100D5000ECEBF3E020EC33E04D914193E217F30725
:100D6000D9F7009709F02BCE08959093C003809394
:100D70000A010895CF93DF93EC018BDE188A8CE291
:100D8000898BCE01ADDE82E18FA740E061E070E0AB
:100D9000CE01D0DE1EA21FA280910B0188A719A64A
:100DA0008D5F80930B0182E08EAB84E08FAB85E09A
:100DB00088AF19AE80E68EA78AE088AB19AA42E018
:100DC00060E270E0CE014A968ADD9AAB8BABBE0141
:100DD0008AE390E0CBDCDF91CF9108950F931F93CE
:100DE000CF93DF93EC018B016091C1037091C2033B
:100DF00040E053DF89E18FA7B801CE0185DFDF91A5
:100E0000CF911F910F9108959093C4038093C303D2
:100E10000895FF920F931F93CF93DF93EC018B0103
:100E2000D9DD882349F08D89813009F063C0CE0176
:100E300095DE20E030E078C0B801CE01F8DD8823EF
:100E400009F45BC08F89813099F48AA1883009F058
:100E500057C0E091C303F091C403309719F0CE015D
:100E60004A960995B801CE01A9DE20E030E05CC0C9
:100E70000633110520F4863009F045C003C08630E2
:100E800009F044C09CA18091C003981342C09DA169
:100E900080910A01981340C0FFA4F1FE05C0CE0165
:100EA00069DF20E030E040C0F4FE39C0CE01A0DEB2
:100EB0009093C2038093C103892B51F4F0FE32C09A
:100EC00040E060E070E0CE01E8DE20E030E02CC0E1
:100ED0002EA522952F7030E0220F331F220F331FD3
:100EE0002E5D3F4F0850110902171307E8F420E068
:100EF00030E01AC020E030E017C020E030E014C03D
:100F000020E030E011C020E030E00EC020E030E012
:100F10000BC020E030E008C020E030E005C020E059
:100F200030E002C020E030E0822F932FDF91CF919C
:100F30001F910F91FF90089597FB072E16F40094D0
:100F400006D077FD08D00BD007FC05D03EF4909575
:100F500081959F4F0895709561957F4F0895AA1BC5
:100F6000BB1B51E107C0AA1FBB1FA617B70710F094
:100F7000A61BB70B881F991F5A95A9F780959095C6
:100F8000BC01CD010895FB01DC014150504030F01F
:100F90008D910190801919F40020B9F7881B990BE5
:100FA00008950F931F93CF93DF93CDB7DEB72E979E
:100FB0000FB6F894DEBF0FBECDBF0D891E8986E047
:100FC0008C831A8309838FEF9FE79E838D83CE01E5
:100FD0004996AC016F89788DCE01019610D0EF81D2
:100FE000F885E00FF11F10822E960FB6F894DEBF41
:100FF0000FBECDBFDF91CF911F910F9108952F921A
:101000003F924F925F926F927F928F929F92AF9298
:10101000BF92CF92DF92EF92FF920F931F93CF93E5
:10102000DF93CDB7DEB72C970FB6F894DEBF0FBEB7
:10103000CDBF7C016B018A01FC011782168283817E
:1010400081FFB9C188248394912C8C0E9D1EF701D9
:101050009381F60193FD859193FF81916F01882320
:1010600009F4A5C1853239F493FD859193FF8191EF
:101070006F01853221F4B70190E0CFD1E8CF512C38
:10108000312C20E02032A8F48B3261F028F4803239
:1010900051F0833271F40BC08D3239F0803349F452
:1010A000216028C02260246025C0286023C0206100
:1010B00021C027FD27C0382F30533A3078F426FF5F
:1010C00006C0FAE05F9E300D1124532E13C08AE053
:1010D000389E300D1124332E20620CC08E3221F444
:1010E00026FD65C1206406C08C3611F4206802C05C
:1010F000883641F4F60193FD859193FF81916F014C
:101100008111C0CF982F9554933018F0905293309E
:1011100028F40C5F1F4FFFE3F9830DC0833631F0D5
:10112000833771F0833509F05AC022C0F8018081FD
:1011300089830E5F1F4F44244394512C540114C0E3
:101140003801F2E06F0E711CF801A080B18026FF1B
:1011500003C0652D70E002C06FEF7FEFC5012C87E3
:1011600051D12C0183012C856FE7262E222217C036
:101170003801F2E06F0E711CF801A080B18026FFEB
:1011800003C0652D70E002C06FEF7FEFC5012C87B3
:101190002ED12C012C8550E8252E222A830123FCF8
:1011A0001AC005C0B70180E290E037D13A94832D90
:1011B00090E048165906B0F30EC0F50127FC859162
:1011C00027FE81915F01B70190E027D131103A9459
:1011D000F1E04F1A51084114510479F7E5C0843603
:1011E00011F0893639F5F80127FF07C06081718158
:1011F000828193810C5F1F4F08C0608171818827B5
:1012000077FD8095982F0E5F1F4F4FE6B42EB222C8
:1012100097FF09C090958095709561957F4F8F4F8E
:101220009F4FF0E8BF2A2AE030E0A40122D1A82E87
:10123000A81842C0853731F43FEEB32EB2222AE01F
:1012400030E024C099EFB92EB2228F36B9F020F4E5
:10125000883509F0ACC00DC0803721F0883709F01F
:10126000A6C002C020E1B22AB4FE0BC084E0B82AB6
:1012700008C024FF09C0E6E0BE2A06C028E030E02E
:1012800005C020E130E002C020E132E0F801B7FE05
:1012900007C060817181828193810C5F1F4F06C0FE
:1012A0006081718180E090E00E5F1F4FA401E1D06A
:1012B000A82EA818FFE7BF22B6FE0BC02B2D2E7F4D
:1012C000A51450F4B4FE0AC0B2FC08C02B2D2E7E2B
:1012D00005C07A2C2B2D03C07A2C01C0752C24FF5D
:1012E0000DC0FE01EA0DF11D8081803311F4297ECD
:1012F00009C022FF06C07394739404C0822F8678BD
:1013000009F0739423FD13C020FF0EC05A2C7314F0
:1013100058F4530C5718732C07C0B70180E290E0C3
:101320002C877BD073942C857314B8F304C073148A
:1013300010F4371801C0312C24FF11C0B70180E32D
:1013400090E02C876AD02C8522FF1CC021FF03C0AF
:1013500088E590E002C088E790E0B7010CC0822FDA
:10136000867881F021FD02C080E201C08BE227FD7A
:101370008DE2B70190E051D005C0B70180E390E065
:101380004CD05A94A514C8F3AA94F401EA0DF11DA7
:10139000B701808190E041D0A110F6CF05C0B70120
:1013A00080E290E03AD03A943110F9CF50CEF70174
:1013B0002681378102C02FEF3FEFC9012C960FB66F
:1013C000F894DEBF0FBECDBFDF91CF911F910F917B
:1013D000FF90EF90DF90CF90BF90AF909F908F9055
:1013E0007F906F905F904F903F902F900895FC01F9
:1013F0000590615070400110D8F7809590958E0F40
:101400009F1F0895FC016150704001900110D8F7B2
:10141000809590958E0F9F1F08950F931F93CF93E4
:10142000DF938C01EB018B8181FD03C00FEF1FEF78
:101430001AC082FF0DC02E813F818C819D812817AB
:10144000390764F4E881F9810193F983E88306C0E0
:10145000E885F985802F0995892B41F78E819F8139
:1014600001969F838E83C801DF91CF911F910F91C9
:101470000895FA01AA27283051F1203181F1E8942A
:101480006F936E7F6E5F7F4F8F4F9F4FAF4FB1E077
:101490003ED0B4E03CD0670F781F891F9A1FA11D72
:1014A000680F791F8A1F911DA11D6A0F711D811D73
:1014B000911DA11D20D009F468943F912AE0269F38
:1014C00011243019305D3193DEF6CF010895462F97
:1014D0004770405D4193B3E00FD0C9F7F6CF462F78
:1014E0004F70405D4A3318F0495D31FD40524193E1
:1014F00002D0A9F7EACFB4E0A6959795879577959E
:101500006795BA95C9F700976105710508959B0124
:10151000AC010A2E06945795479537952795BA95AD
:10152000C9F7620F731F841F951FA01D0895F894BB
:02153000FFCFEB
:10153200CD1516171819C0A80196500A4745542010
:10154200002F696E6465782E68746D00746573741B
:10155200002F4425303364002F4E4F524D003C6221
:101562003E41546D6567613132383420576562738C
:101572006572766572202F20454E4332384A3630E6
:101582003C2F623E3C62723E3C62723E46616E207D
:10159200262054656D70657261747572652073746E
:1015A2006174733A3C62723E54656D706572617427
:1015B2007572653A2564B0432046616E20537065AA
:1015C20065643A25643C62723E4144432056616C34
:1015D20075653A25643C62723E4279204E69636BBE
:0A15E200204865726E696D616E00AD
:00000001FF
