S01200004D61696E206275696C642E737265635D
S11300000C9446000C9466000C9466000C946600F4
S11300100C9466000C9466000C9466000C946600C4
S11300200C9466000C9466000C9466000C946600B4
S11300300C9466000C9466000C9466000C946600A4
S11300400C9466000C9466000C9466000C94660094
S11300500C9466000C9466000C9466000C94660084
S11300600C9466000C9466000C9466000C94660074
S11300700C9466000C9466000C9466000C94660064
S11300800C9466000C9466000C94660011241FBE48
S1130090CFEFD0E4DEBFCDBF11E0A0E0B1E0E4E3F8
S11300A0F1E000E00BBF02C007900D92A030B10751
S11300B0D9F71BBE11E0A0E0B1E001C01D92A03051
S11300C0B107E1F70E947A000C9498000C940000A8
S11300D0389A98B181E0892788B90895E1EBF0E076
S11300E0808181608083E0EBF0E08081836880839D
S11300F0579A08950E946E0010E0C3EBD0E00AC046
S113010018830E9468008FE493EC0197F1F700C014
S113011000001F5F1F3FA1F718830E9468008FE44F
S113012093EC0197F1F700C000001150A9F7F2CF4A
S1070130F894FFCF6D
S9030000FC
