S00B0000474D442E7372656341
S113000054C1000070C100006EC100006CC100004A
S11300106AC1000068C1000066C1000064C100003C
S113002062C1000060C100005EC100005CC100004C
S11300305AC1000058C1000056C1000054C100005C
S113004052C1000050C100004EC100004CC100006C
S11300504AC1000048C1000046C1000044C100007C
S113006042C1000040C100003EC100003CC100008C
S11300703AC1000038C1000036C1000034C100009C
S113008032C1000030C100002EC100004854545059
S11300902F312E3020323030204F4B0D0A436F6EFB
S11300A074656E742D547970653A20746578742F74
S11300B068746D6C0D0A507261676D613A206E6FE1
S11300C02D63616368650D0A0D0A003C68313E3298
S11300D03030204F4B3C2F68313E003C623E41544F
S11300E06D65676138205765627365727665722045
S11300F02F20454E4332384A36303C2F623E3C6214
S1130100723E3C62723E536572766572207374610E
S113011074733A3C62723E4163633A256420506EC4
S1130120673A25643C62723E3C62723E2843292051
S113013052616475204D6F746973616E2032303181
S1130140322C207777772E706F636B65746D6167DF
S113015069632E6E657400485454502F312E30203C
S113016034303120556E617574686F72697A6564D4
S11301700D0A436F6E74656E742D547970653A2060
S1130180746578742F68746D6C0D0A0D0A3C6831BF
S11301903E34303120556E617574686F72697A65CA
S11301A0643C2F68313E006E616E00696E6600002B
S11301B0407A10F35A00A0724E18090010A5D4E832
S11301C00000E87648170000E40B54020000CA9AC5
S11301D03B000000E1F50500008096980000004017
S11301E0420F000000A0860100000010270000005C
S11301F000E803000000006400000000000A0000A2
S11302000000000100000000002C76D888DC674F55
S11302100823DFC1DFAE59E1B1B796E5E3E453C685
S11302203AE651997696E8E6C28426EB898C9B627D
S1130230ED407C6FFCEFBC9C9F40F2BAA56FA5F427
S113024090055A2AF75C936B6CF9676DC11BFCE04F
S1130250E40D47FEF520E6B500D0ED902E030094A2
S11302603577050080841E080000204E0A00000037
S1130270C80C333333330F986E12831141EF8D2141
S113028014893BE65516CFFEE6DB18D1844B381BA8
S1130290F77C1D901DA4BBE424203284725E22816D
S11302A000C9F124ECA1E53D270011241FBECFEFC6
S11302B0D0E4DEBFCDBF11E0A0E0B1E0EEE3F9E2AF
S11302C000E00BBF02C007900D92A431B107D9F72B
S11302D023E0A4E1B1E001C01D92AF31B207E1F720
S11302E018D00C949D148CCECF93DF9300D0CDB74F
S11302F0DEB79A8389838091090390910A0301965A
S113030090930A03809309030F900F90DF91CF918C
S113031008950F931F93CF93DF93CDB7DEB7C25ADF
S1130320D1090FB6F894DEBF0FBECDBF1C821B826D
S11303301A82198280E091E048D380E090E0A8EC32
S1130340B2E48D839E83AF83B88720E030E04AE730
S113035055E46D817E818F8198850E945512DC0160
S1130360CB0189879A87AB87BC8720E030E040E8DF
S11303705FE369857A858B859C850E94D4118823E7
S11303802CF481E090E09E878D8742C020E03FEF0F
S11303904FE757E469857A858B859C850E945112C5
S11303A0181664F520E030E040E251E46D817E816E
S11303B08F8198850E945512DC01CB01BC01CD01CF
S11303C00E94D811DC01CB019E878D8712C080E981
S11303D091E0988B8F878F8598898C01C80101974C
S11303E0F1F78C01188B0F878D859E8501979E8769
S11303F08D878D859E85009751F717C069857A850D
S11304008B859C850E94D811DC01CB019E878D874A
S11304108D859E859A8B898B89899A898C01F801AF
S11304203197F1F78F011A8B098B66E774E084E149
S11304309CD280E090E0A8ECB2E48B8B9C8BAD8BDB
S1130440BE8B20E030E04AE755E46B897C898D89D6
S11304509E890E945512DC01CB018F8B988FA98F46
S1130460BA8F20E030E040E85FE36F89788D898DB2
S11304709A8D0E94D41188232CF481E090E09C8F03
S11304808B8F42C020E03FEF4FE757E46F89788DB0
S1130490898D9A8D0E945112181664F520E030E07F
S11304A040E251E46B897C898D899E890E945512B2
S11304B0DC01CB01BC01CD010E94D811DC01CB01D0
S11304C09C8F8B8F12C080E991E09E8F8D8F8D8DD4
S11304D09E8D8C01C8010197F1F78C011E8F0D8F41
S11304E08B8D9C8D01979C8F8B8F8B8D9C8D009712
S11304F051F717C06F89788D898D9A8D0E94D81114
S1130500DC01CB019C8F8B8F8B8D9C8D98A38F8F5F
S11305108F8D98A18C01F8013197F1F78F0118A301
S11305200F8F66E071E080E091E00E94500C80E55E
S113053090E00E94860C84E791E00E944F0D64E1F4
S113054071E084EF91E079D3BC0184E191E00E94F1
S1130550610D9A83898389819A81009709F48FC0F8
S113056089819A818C5E9E4F44E050E0BC018CE00E
S113057091E00E94CC130097B1F04CE850E060E0A9
S113058070E084E191E00E94E10A9A838983898181
S11305909A814BEC50E0BC0184E191E00E94E10AB5
S11305A09A83898364C089819A8104968C5E9E4F64
S11305B042E050E0BC0181E191E00E94CC1300973D
S11305C009F04CC080910B0390910C030196909319
S11305D00C0380930B034CE850E060E070E084E18E
S11305E091E0EFD79A83898322E8CE018196FC01BA
S11305F0322F11923A95E9F72091090330910A03B9
S113060080910B0390910C03432F4F932F93292F29
S11306102F938F938BED90E0892F8F938BED90E048
S11306208F93CE018196292F2F938F930E941114BB
S11306308DB79EB708960FB6F894DEBF0FBECDBF38
S11306409E012F5D3F4F89819A81A901BC0184E1FC
S113065091E00E945B0B9A83898309C047E551E0CE
S113066060E070E084E191E0ACD79A83898389816A
S11306709A81BC0184E191E00E94280D60CF0000C2
S11306805ECFCF93DF9300D0CDB7DEB789836A8383
S113069085E290E025E230E0F90120812F7EFC0123
S11306A020838EE490E02A81322F3F712981232B0D
S11306B0FC0120838DE490E0FC0180818823D4F741
S11306C08EE490E0FC0110828DE490E0FC018081D6
S11306D08823D4F78A81882354F48EE490E0FC01C3
S11306E010828DE490E0FC0180818823D4F785E2B8
S11306F090E025E230E0F90120812061FC012083B3
S11307008EE490E0FC0180810F900F90DF91CF91F7
S11307100895CF93DF9300D01F92CDB7DEB78983BE
S11307206A834B8385E290E025E230E0F901208181
S11307302F7EFC0120838EE490E02A81322F3F71CA
S11307402981232BFC0120838DE490E0FC0180812E
S11307508823D4F78EE490E02B81FC0120838DE480
S113076090E0FC0180818823D4F785E290E025E2C3
S113077030E0F90120812061FC0120830F900F906B
S11307800F90DF91CF910895CF93DF9300D000D0E5
S1130790CDB7DEB79A8389837C836B8385E290E04F
S11307A025E230E0F90120812F7EFC0120838EE4D4
S11307B090E02AE3FC0120838DE490E0FC01808139
S11307C08823D4F71CC089819A8101979A838983ED
S11307D08EE490E0FC0110828DE490E0FC018081C5
S11307E08823D4F78EE490E0FC0120818B819C81E6
S11307F0FC0120838B819C8101969C838B8389815E
S11308009A81009701F78B819C81FC01108285E21B
S113081090E025E230E0F90120812061FC01208391
S11308200F900F900F900F90DF91CF910895CF9379
S1130830DF9300D000D0CDB7DEB79A8389837C8361
S11308406B8385E290E025E230E0F90120812F7E80
S1130850FC0120838EE490E02AE7FC0120838DE4F0
S113086090E0FC0180818823D4F718C089819A81A3
S113087001979A8389838EE490E02B813C81F9016E
S11308802081FC0120838B819C8101969C838B8336
S11308908DE490E0FC0180818823D4F789819A81DA
S11308A0009721F785E290E025E230E0F90120810C
S11308B02061FC0120830F900F900F900F90DF9127
S11308C0CF910895CF93DF931F92CDB7DEB789837D
S11308D08981882F90E09C012076332780910D0335
S11308E0882F90E028173907D9F043E06FE180EAB8
S11308F010DF8981882F90E08076992795958795D8
S113090095958795959587959595879595958795CB
S1130910482F6FE180E8FDDE8981807680930D03A6
S11309200F90DF91CF910895CF93DF931F92CDB7AE
S1130930DEB789838981C6DF698180E0A2DE0F90FA
S1130940DF91CF910895CF93DF9300D0CDB7DEB779
S113095089836A838981B6DF4A81698180E4D9DE2B
S11309600F900F90DF91CF9108951F93CF93DF9352
S113097000D000D0CDB7DEB78A837C836B836A81D5
S113098084EDE1DF8B81682F86EDDDDF8B819C8137
S1130990892F9927682F87EDD6DF07C088E28983DE
S11309A08981182F1A95F1F719838AEEBDDF882FF4
S11309B090E081709927009789F70F900F900F901E
S11309C00F90DF91CF911F9108950F931F93CF93B1
S11309D0DF9300D000D0CDB7DEB79C838B8384E255
S11309E090E024E230E0F90120812061FC012083C1
S11309F085E290E025E230E0F90120812061FC01EC
S1130A00208384E290E024E230E0F9012081206A2E
S1130A10FC01208384E290E024E230E0F9012081AB
S1130A202064FC01208385E290E025E230E0F901B6
S1130A3020812062FC01208385E290E025E230E001
S1130A40F90120812068FC0120838CE490E020E5FA
S1130A50FC0120838DE490E02DE430E0F901208155
S1130A602160FC0120834FEF60E08FEF52DE1A8299
S1130A70198289819A818C01C8010197F1F78C014F
S1130A801A83098310920F0310920E0360E088E02A
S1130A905ADF60E089E057DF60E08CE054DF60E01B
S1130AA08DE051DF6FEF8AE04EDF69E18BE04BDFD1
S1130AB060E084E048DF6AE185E045DF6FEF86E0CF
S1130AC042DF6FE187E03FDF60EB88E33CDF6FE309
S1130AD088E239DF60E389E236DF69EF80E333DF00
S1130AE067EF81E330DF6DE080EC2DDF60E081ECC7
S1130AF02ADF42E362EC80E80CDE62E186EC23DF6D
S1130B006CE087EC20DF62E184EC1DDF6CED8AECA5
S1130B101ADF65E08BEC17DF8B819C81FC018081FF
S1130B20682F84EE10DF8B819C810196FC0180810B
S1130B30682F85EE08DF8B819C810296FC01808101
S1130B40682F82EE00DF8B819C810396FC018081FB
S1130B50682F83EEF8DE8B819C810496FC018081F2
S1130B60682F80EEF0DE8B819C810596FC018081EC
S1130B70682F81EEE8DE60E071E080E1F6DE8FE16F
S1130B80A1DE40EC6BE180E8C4DD44E06FE180E885
S1130B90C0DD0F900F900F900F90DF91CF911F91B8
S1130BA00F910895CF93DF9300D000D0CDB7DEB777
S1130BB09A8389837C836B8310C08CE1B5DE882F94
S1130BC090E082709927009741F040E86FE180E857
S1130BD0A0DD40E86FE180EA9CDD6FE180E051DD5B
S1130BE0882F90E088709927009739F760E082E0B9
S1130BF0AADE6AE183E0A7DE8981682F86E0A3DEAE
S1130C0089819A81965E892F9927682F87E09BDED8
S1130C1040E060E08AE77DDD2B813C8189819A8117
S1130C20B90105DE48E06FE180E873DD0F900F90B5
S1130C300F900F90DF91CF910895CF93DF93CDB7AD
S1130C40DEB728970FB6F894DEBF0FBECDBF9E83E4
S1130C508D8378876F8389E367DE882319F480E0C6
S1130C6090E09FC080910E0390910F03682F80E065
S1130C706ADE80910E0390910F03892F990F990BCF
S1130C80682F81E060DE60E08AE3FBDC882F90E07F
S1130C9090930F0380930E0360E08AE3F2DC882FC5
S1130CA090E0382F222780910E0390910F03822B1E
S1130CB0932B90930F0380930E0360E08AE3E1DCAF
S1130CC0882F90E09A83898360E08AE3DADC882FB6
S1130CD090E0982F882729813A81822B932B9A833D
S1130CE0898389819A8104979A83898360E08AE35E
S1130CF0C8DC882F90E09C838B8360E08AE3C1DCAE
S1130D00882F90E0982F88272B813C81822B932B6E
S1130D109C838B838D819E819C0121503109898123
S1130D209A812817390728F48D819E8101979A8327
S1130D3089838B819C8180789927009719F41A8282
S1130D40198206C02F81388589819A81B9011CDDF9
S1130D5080910E0390910F03019781152AE1920768
S1130D603CF06FEF8CE0EFDD69E18DE0ECDD13C06A
S1130D7080910E0390910F038150682F8CE0E3DD86
S1130D8080910E0390910F030197892F990F990B6E
S1130D90682F8DE0D8DD40E46EE180E8BADC89811B
S1130DA09A8128960FB6F894DEBF0FBECDBFDF91AF
S1130DB0CF910895CF93DF93CDB7DEB729970FB6C0
S1130DC0F894DEBF0FBECDBF9E838D8378876F837B
S1130DD0498719821A821B821C8289858130E9F431
S1130DE089819A81AB81BC814196A11DB11D898302
S1130DF09A83AB83BC838F8198850897CC01A0E04C
S1130E00B0E029813A814B815C81820F931FA41F3A
S1130E10B51F89839A83AB83BC838985823009F0AB
S1130E204FC089819A81AB81BC810696A11DB11DF9
S1130E3089839A83AB83BC838F8198850897CC017F
S1130E40A0E0B0E029813A814B815C81820F931F3D
S1130E50A41FB51F89839A83AB83BC8331C08D8162
S1130E609E81FC018081882F90E0A0E0B0E02227E1
S1130E70382F492F5A2F8D819E810196FC01808144
S1130E80882F90E0A0E0B0E0822B932BA42BB52B0D
S1130E90AA27BB2729813A814B815C81820F931F4A
S1130EA0A41FB51F89839A83AB83BC838D819E81E4
S1130EB002969E838D838F819885029798878F836E
S1130EC08F8198858230910550F68F81988500979F
S1130ED089F18D819E81FC018081882F90E0A0E0C2
S1130EE0B0E0BA2FA92F982F882729813A814B8106
S1130EF05C81820F931FA41FB51F89839A83AB83E0
S1130F00BC8318C089819A81AB81BC819C01AD01ED
S1130F104427552789819A81AB81BC81CD01AA27B9
S1130F20BB27820F931FA41FB51F89839A83AB83AA
S1130F30BC8301C0000089819A81AB81BC81CD0151
S1130F40AA27BB270097A105B105E1F689819A81FB
S1130F508095909529960FB6F894DEBF0FBECDBF4D
S1130F60DF91CF910895CF93DF9300D0CDB7DEB753
S1130F709A83898389819A81009751F089819A8122
S1130F8026E0FC01A0E1B3E001900D922A95E1F77F
S1130F900F900F90DF91CF910895CF93DF9300D0FE
S1130FA000D01F92CDB7DEB79B838A837D836C8389
S1130FB019828C819D818932910510F480E02CC0C6
S1130FC08A819B810C96FC018081883039F48A8166
S1130FD09B810D96FC0180818630D1F080E01CC09D
S1130FE08981882F90E086962A813B81820F931F06
S1130FF0FC0120818981882F90E08A5E9C4FFC014E
S11310008081281711F080E007C089818F5F898370
S11310108981843028F381E00F900F900F900F9016
S11310200F90DF91CF910895CF93DF9300D000D03C
S11310301F92CDB7DEB79B838A837D836C8319822D
S11310408C819D818A32910510F480E035C08A81BB
S11310509B810C96FC018081883039F48A819B81C4
S11310600D96FC018081882311F080E025C08A81DF
S11310709B810E96FC0180818534D1F080E01CC0F8
S11310808981882F90E04E962A813B81820F931F9D
S1131090FC0120818981882F90E08A5E9C4FFC01AD
S11310A08081281711F080E007C089818F5F8983D0
S11310B08981843028F381E00F900F900F900F9076
S11310C00F90DF91CF910895CF93DF9300D01F92BB
S11310D0CDB7DEB79B838A83198228C08981882F84
S11310E090E02A813B81820F931F2981222F30E0D7
S11310F02A5F3F4F4A815B81240F351FF90120810C
S1131100FC0120838981882F90E006962A813B8107
S1131110820F931F2981222F30E0205F3C4FF90179
S11311202081FC01208389818F5F898389818630B6
S1131130A8F20F900F900F90DF91CF910895CF9365
S1131140DF9300D000D0CDB7DEB79C838B838B8137
S11311509C814896FC0110828B819C814996FC01FC
S113116010828B819C81449620E4FC0120838B8136
S11311709C814596FC0110828B819C81469620E4DB
S1131180FC0120838B819C810E9640E064E170E039
S113119011DE9A8389838B819C81489629813A81C7
S11311A0232F3327FC0120838B819C81499629813D
S11311B0FC0120830F900F900F900F90DF91CF913F
S11311C00895CF93DF9300D01F92CDB7DEB79B83F2
S11311D08A83198229C08981882F90E04E962A81BA
S11311E03B81820F931F2981222F30E0265E3F4FDF
S11311F04A815B81240F351FF9012081FC01208382
S11312008981882F90E04A962A813B81820F931F1F
S11312102981222F30E02A5E3C4FF9012081FC0114
S1131220208389818F5F898389818430A0F28A81B8
S11312309B8185DF0F900F900F90DF91CF910895E0
S1131240CF93DF93CDB7DEB727970FB6F894DEBF01
S11312500FBECDBF9C838B837E836D834F8384E0DD
S113126089834AC08981882F90E085962B813C81AF
S1131270820F931FFC018081882F90E02D813E8195
S1131280820F931F9E838D838981882F90E0899696
S11312902B813C81820F931FFC0180818A83898189
S11312A0882F90E089962B813C81820F931F2D819A
S11312B0FC0120838F81882361F08981882F90E04D
S11312C085962B813C81820F931F2A81FC01208308
S11312D00AC08981882F90E085962B813C81820FFA
S11312E0931FFC0110828D819E81892F99279E83F3
S11312F08D838981815089838981882309F0B2CFC4
S113130027960FB6F894DEBF0FBECDBFDF91CF9105
S11313100895CF93DF9300D000D000D0CDB7DEB7CF
S11313209B838A837D836C834E838A819B81FC01AA
S113133084A189838A819B8184962A813B81F901D6
S113134022A1FC0120838A819B8182962981FC0150
S113135020838A819B81FC0185A189838A819B8169
S113136085962A813B81F90123A1FC0120838A818E
S11313709B8183962981FC0120832C813D818A8174
S11313809B814E81B9015CDF8A819B81C296FC01FD
S113139010828A819B81C396FC0110828A819B8181
S11313A08E9620E5FC01208326960FB6F894DEBFC6
S11313B00FBECDBFDF91CF910895CF93DF9300D0BF
S11313C01F92CDB7DEB79B838A8319828A819B8162
S11313D07BDE8A819B814496FC0110828A819B81F9
S11313E0459622E0FC01208329C08981882F90E062
S11313F080962A813B81820F931F2981222F30E01E
S11314002A5E3F4F4A815B81240F351FF9012081F9
S1131410FC0120838981882F90E046962A813B81B4
S1131420820F931F2981222F30E0205F3C4FF90166
S11314302081FC01208389818F5F898389818630A3
S1131440A0F2198229C08981882F90E086962A818A
S11314503B81820F931F2981222F30E0245E3F4F6E
S11314604A815B81240F351FF9012081FC0120830F
S11314708981882F90E04C962A813B81820F931FAB
S11314802981222F30E02A5E3C4FF9012081FC01A2
S1131490208389818F5F898389818430A0F28A8146
S11314A09B81BC018AE290E07DDB0F900F900F904E
S11314B0DF91CF910895CF93DF9300D000D0CDB7C3
S11314C0DEB79A8389837C836B8389819A81FCDD6F
S11314D089819A8176DE89819A818296FC011082C3
S11314E089819A818496FC018081883F40F08981BA
S11314F09A818596FC0120812F5FFC0120838981DC
S11315009A81849629813A812C5D3F4FF90120818B
S1131510285FFC01208329813A818B819C81B90158
S113152041DB0F900F900F900F90DF91CF910895B2
S1131530CF93DF9300D000D0CDB7DEB79C838B83ED
S11315408B819C814096FC018081882F90E0382F0C
S113155022278B819C814196FC018081882F90E019
S11315609927822B932B9A83898389819A81449723
S11315709A8389838B819C818E96FC0180818295DC
S11315808F70282F30E080E090E0821B930B880F4F
S1131590991F880F991F29813A81820F931F9A837B
S11315A0898389819A811816190614F01A8219827E
S11315B089819A810F900F900F900F90DF91CF91B6
S11315C008951F93CF93DF93CDB7DEB72A970FB655
S11315D0F894DEBF0FBECDBF9E838D8378876F8363
S11315E05A8749870FC08F819885C6962D813E8181
S11315F0820F931F2C81FC0120838F819885019693
S113160098878F8389859A859A83898389859A8522
S113161001969A87898789819A81FC0114911B8399
S11316208B818C838C818823F1F68F8198852A960F
S11316300FB6F894DEBF0FBECDBFDF91CF911F91DF
S11316400895CF93DF93CDB7DEB727970FB6F894FD
S1131650DEBF0FBECDBF9A8389837C836B835E8399
S11316604D832F831AC08B819C81C69629813A8130
S1131670820F931F2D813E81F9012081FC0120837B
S11316808B819C8101969C838B838D819E810196A5
S11316909E838D838F8181508F838F81882319F757
S11316A08B819C8127960FB6F894DEBF0FBECDBF09
S11316B0DF91CF910895CF93DF9300D000D000D075
S11316C0CDB7DEB79A8389837C836B835E834D8336
S11316D08D819E810E94C313282F4D815E816B8171
S11316E07C8189819A81ADDF26960FB6F894DEBF9E
S11316F00FBECDBFDF91CF910895CF93DF93CDB7C8
S1131700DEB727970FB6F894DEBF0FBECDBF9C831C
S11317108B837E836D834F838B819C81D5DC8B810E
S11317209C818F962F812061FC0120838F818430DE
S113173041F42D813E818B819C8141E0B901E9DD39
S11317400FC08D819E81009721F481E090E09E83FB
S11317508D832D813E818B819C8141E0B901D9DD4E
S113176088E290E09A8389838B819C8140962981C9
S11317703A81232F3327FC0120838B819C8141965E
S11317802981FC0120838B819C811BDD8B819C81C1
S1131790C09624E0FC0120838B819C81C196FC01CE
S11317A010828B819C814A9642E06CE170E002DBFE
S11317B09A8389838B819C81C29629813A81232FC4
S11317C03327FC0120838B819C81C3962981FC01F2
S11317D020838B819C81BC0186E390E0E3D927962A
S11317E00FB6F894DEBF0FBECDBFDF91CF91089541
S11317F0CF93DF9300D000D000D0CDB7DEB79C8369
S11318008B837E836D838D819E8188969A83898361
S11318108B819C81409629813A81232F3327FC01B7
S113182020838B819C8141962981FC0120838B81BB
S11318309C8185DC8B819C81C296FC0110828B810A
S11318409C81C396FC0110828D819E819C01245E43
S11318503F4F8B819C814A9642E0B901ABDA9A836F
S113186089838B819C81C29629813A81232F3327D6
S1131870FC0120838B819C81C3962981FC012083F8
S11318808D819E81C6962B813C81B9018BD9269688
S11318900FB6F894DEBF0FBECDBFDF91CF91089590
S11318A0CF93DF9300D000D01F92CDB7DEB79B83D8
S11318B08A837D836C8319828C819D810097B9F022
S11318C013C08981882F90E02981222F30E04C8138
S11318D05D81240F351FF90120818A5E9C4FFC0134
S11318E0208389818F5F89838981843050F38A8141
S11318F09B81009719F08A819B8135DB0F900F90B3
S11319000F900F900F90DF91CF910895CF93DF93B5
S113191000D0CDB7DEB79A83898389819A81892FD4
S1131920992780931C03898180930B010F900F905A
S1131930DF91CF910895CF93DF9300D000D0CDB73E
S1131940DEB79C838B838B819C81BEDB8B819C81E6
S11319504096FC0110828B819C8141962CE2FC0113
S113196020838B819C812DDC8B819C818F9622E14D
S1131970FC0120838B819C8140E061E070E0C9DC44
S11319808B819C818696FC0110828B819C81879639
S1131990FC0110828B819C81889620910A01FC01B4
S11319A020838B819C818996FC01108280910A019D
S11319B08D5F80930A018B819C81C69622E0FC0195
S11319C020838B819C81C79624E0FC0120838B813A
S11319D09C81C89625E0FC0120838B819C81C9965B
S11319E0FC0110828B819C818E9620E6FC01208371
S11319F08B819C81C0962AE0FC0120838B819C8191
S1131A00C196FC0110828B819C814A9642E060E27F
S1131A1070E0D0D99A8389838B819C81C296298175
S1131A203A81232F3327FC0120838B819C81C39629
S1131A302981FC0120838B819C81BC018AE390E095
S1131A40B1D80F900F900F900F90DF91CF91089520
S1131A50CF93DF9300D000D0CDB7DEB79A838983CC
S1131A607C836B8380911D0390911E039C0189816B
S1131A709A8140E0B90141DE89819A818F9629E1FA
S1131A80FC0120832B813C8189819A81B901B0DEDC
S1131A900F900F900F900F90DF91CF910895CF93F7
S1131AA0DF9300D0CDB7DEB79A83898389819A8189
S1131AB090931B0380931A030F900F90DF91CF91A3
S1131AC00895CF93DF9300D000D000D0CDB7DEB718
S1131AD09C838B837E836D832D813E818B819C814E
S1131AE0B9015BDA882369F08B819C814596FC01FE
S1131AF08081813019F48B819C815FDC80E090E0EF
S1131B00BCC02D813E818B819C81B9018DDA8823F3
S1131B1019F480E090E0B1C08B819C814796FC0170
S1131B2080818130F9F48B819C818296FC018081D3
S1131B308830C1F480911A0390911B03009749F0F7
S1131B4020911A0330911B038B819C814A96F901E1
S1131B5009952D813E818B819C81B901ACDC80E0AB
S1131B6090E08BC08D819E818633910550F48B81EA
S1131B709C814796FC018081863019F080E090E0DA
S1131B807CC08B819C814796FC018081863009F062
S1131B9072C08B819C818496FC01908180911C038E
S1131BA0981709F068C08B819C818596FC0190810F
S1131BB080910B01981709F05EC08B819C818F96F0
S1131BC0FC018081882F90E082709927009731F082
S1131BD08B819C81B0DE80E090E04FC08B819C8142
S1131BE08F96FC018081882F90E08071992700975F
S1131BF009F441C08B819C819BDC90931E038093EC
S1131C001D0380911D0390911E030097A1F48B8105
S1131C109C818F96FC018081882F90E081709927A8
S1131C20009731F08B819C8140E060E070E065DDDD
S1131C3080E090E022C08B819C818E96FC018081A3
S1131C4082958F70882F90E0880F991F880F991FB5
S1131C5082969A8389838D819E819C0128503109C3
S1131C6089819A812817390718F480E090E005C02B
S1131C7089819A8102C080E090E026960FB6F8949C
S1131C80DEBF0FBECDBFDF91CF9108952F923F925B
S1131C904F925F926F927F928F929F92AF92BF9278
S1131CA0CF92DF92EF92FF920F931F93CF93DF9324
S1131CB0CDB7DEB762970FB6F894DEBF0FBECDBFC7
S1131CC07C011B016A01FC0117821682838181FD5C
S1131CD003C04EC3650105C088248394912C8C0EE7
S1131CE09D1EF7019381F10193FD859193FF8191ED
S1131CF01F01882309F438C3853239F493FD859193
S1131D0093FF81911F01853229F4B70190E05DD5DD
S1131D105601E0CF712C612C20E02032A8F48B32E4
S1131D2061F028F4803251F0833271F40BC08D32AB
S1131D3039F0803349F4216028C02260246025C032
S1131D40286023C0206121C027FD27C0382F3053CD
S1131D503A3078F426FF06C0FAE07F9E300D112455
S1131D60732E13C04AE0649E300D1124632E20624A
S1131D700CC08E3221F426FDF7C2206406C08C36D6
S1131D8011F4206802C0883641F4F10193FD859175
S1131D9093FF81911F018111C0CF982F95549330E7
S1131DA018F42061805E06C0982F9556933008F091
S1131DB094C12F7E26FD02C016E0712EBFE35B2E78
S1131DC05222853619F4F0E45F2A07C0863619F4E6
S1131DD040E8542A02C071107A9457FE07C05BE3AE
S1131DE0571548F0472C439427E00DC087E087152A
S1131DF030F0272D07C027E0ACE34A2E04C027E0CB
S1131E00F7E07F2E412C560194E0A90EB11CF60197
S1131E106081718182819381042DA401D1D38C01CD
S1131E2049814C8740FF02C043FF07C051FC08C0F2
S1131E3052FE09C0E0E2DE2E07C07DE2D72E04C0C8
S1131E406BE2D62E01C0D12C8C858C7089F1DD20FB
S1131E5011F084E001C083E0861510F0612C0AC003
S1131E60681A53FC07C0B70180E290E0AED46A94CC
S1131E70D1F7F4CFDD2021F0B7018D2D90E0A5D46A
S1131E805C8553FD03C00BEA11E00BC007EA11E0C7
S1131E9008C051108052B70190E097D40F5F1F4FD4
S1131EA002C080E15822F80184918111F2CF59C215
S1131EB057FE0EC0400E4C8544FF04C08A81813316
S1131EC009F44A9414144CF558E0541548F12CC004
S1131ED056FC2AC0872D90E08017910744F00C3FF0
S1131EE08FEF180724F090E8592A01C07A947720DC
S1131EF049F0E2E0F0E0EC0FFD1FE70DF11D8081F9
S1131F008033A1F357FE10C0472C4394872D90E0F3
S1131F100817190744F4701A07C04424439404C0F2
S1131F2058E0452E01C0712C57FE07C0101611064B
S1131F303CF498012F5F3F4F05C025E030E002C01C
S1131F4021E030E0DD2011F02F5F3F4F772031F0AA
S1131F50472D50E04F5F5F4F240F351F462D50E053
S1131F602417350714F4621A01C0612C852D897079
S1131F7041F405C0B70180E290E027D46A9461106F
S1131F80F9CFDD2021F0B7018D2D90E01ED453FC54
S1131F9008C005C0B70180E390E017D46A946110CB
S1131FA0F9CF57FE54C0680117FF02C0C12CD12CD1
S1131FB020E030E0A801441951095E874D872801CB
S1131FC04C185D08480C591C872D90E04427552770
S1131FD0481B590B588B4F875FEFC516D50641F444
S1131FE0B7018EE290E02A8B398BEFD339892A89A5
S1131FF00C151D0554F04D855E854C155D052CF4BE
S1132000F201E20FF31F818101C080E351E0C51AA0
S1132010D1082F5F3F4F4F855889C416D50644F029
S1132020B70190E02A8B398BD0D32A893989D4CF50
S1132030C016D10649F49A81963328F4953321F4D5
S11320405C8554FD01C081E3B70190E044C08A81FE
S1132050813319F04C854F7E4C87B70190E0B5D39E
S1132060711005C054FE14C085E490E013C0B7019C
S11320708EE290E0AAD342E0D42EF401ED0DF11DDE
S1132080D394B701808190E0A0D37A94B1F7EACFDA
S113209085E690E0B70199D317FD06C00115110537
S11320A041F45C8554FF05C01195019511098DE239
S11320B001C08BE2B70190E088D380E303C08F5F57
S11320C00A5011090A301105D4F7B70190E07DD305
S11320D0B701C801C09679D344C1833631F0833740
S11320E081F0833509F05AC023C0560182E0A80E5E
S11320F0B11CF60180818983CC24C394D12C840142
S113210013C05601F2E0AF0EB11CF601008111813B
S113211026FF03C0672D70E002C06FEF7FEFC80198
S11321202A8B48D36C012A899FE7592E522216C064
S11321305601F2E0AF0EB11CF6010081118126FFB9
S113214003C0672D70E002C06FEF7FEFC8012A8BD8
S11321500FD36C012A8980E8582E522A53FC1AC0E6
S113216005C0B70180E290E030D36A94862D90E0F8
S1132170C816D906B0F30EC0F80157FC859157FE76
S113218081918F01B70190E020D361106A94F1E04E
S1132190CF1AD108C114D10479F7E3C0843611F001
S11321A0893649F5560127FF09C044E0A40EB11C45
S11321B0F60160817181828193810AC0F2E0AF0EE1
S11321C0B11CF60160817181882777FD8095982F75
S11321D0122F1F7697FF08C0909580957095619592
S11321E07F4F8F4F9F4F10682AE030E0A40147D300
S11321F0D82ED8183FC0122F853721F41F7E2AE02D
S113220030E01FC0197F8F36A1F020F4883509F023
S1132210ABC00BC0803721F0883709F0A5C001C0DE
S1132220106114FF09C0146007C024FF08C01660C1
S113223006C028E030E005C020E130E002C020E123
S113224032E0560117FF09C0F4E0AF0EB11CF601ED
S1132250608171818281938108C0F2E0AF0EB11C6C
S1132260F6016081718180E090E0A40108D3D82E4A
S1132270D8181F7716FF0BC0212F2E7FD71450F4C8
S113228014FF0AC012FD08C0212F2E7E05C00D2D9B
S1132290212F03C00D2D01C0072D24FF0CC0FE010A
S11322A0ED0DF11D8081803311F4297E08C022FFD9
S11322B005C00E5F04C0822F867809F00F5F23FDEE
S11322C013C020FF0EC07D2C061558F4760C701A2E
S11322D0062D07C0B70180E290E02A8B76D20F5F0B
S11322E02A890615B8F304C0061510F4601A01C053
S11322F0612C24FF11C0B70180E390E02A8B65D2E2
S11323002A8922FF1CC021FF03C088E590E002C097
S113231088E790E0B7010CC0822F867881F021FD18
S113232002C080E201C08BE227FD8DE2B70190E09C
S11323304CD205C0B70180E390E047D27A94D71419
S1132340C8F3DA94F401ED0DF11DB701808190E03A
S11323503CD2D110F6CF05C0B70180E290E035D26F
S11323606A946110F9CFB6CCF7012681378102C097
S11323702FEF3FEFC90162960FB6F894DEBF0FBE90
S1132380CDBFDF91CF911F910F91FF90EF90DF9020
S1132390CF90BF90AF909F908F907F906F905F9001
S11323A04F903F902F9008952FD008F481E0089526
S11323B057D088F09F5790F0B92F9927B751A0F0C4
S11323C0D1F0660F771F881F991F1AF0BA95C9F7C5
S11323D012C0B13081F05ED0B1E008955BC0672FC8
S11323E0782F8827B85F39F0B93FCCF38695779575
S11323F06795B395D9F73EF490958095709561955E
S11324007F4F8F4F9F4F0895990F0008550FAA0BC8
S1132410E0E8FEEF16161706E807F907C0F01216F3
S11324201306E407F50798F0621B730B840B950BF6
S113243039F40A2661F0232B242B252B21F408954B
S11324400A2609F4A140A6958FEF811D811D0895E8
S113245057FD9058440F551F59F05F3F71F0479551
S1132460880F97FB991F61F09F3F79F08795089536
S1132470121613061406551FF2CF4695F1DF08C055
S1132480161617061806991FF1CF86957105610572
S113249008940895E894BB2766277727CB0197F91A
S11324A00895B2DF08F48FEF08950BD078C069D097
S11324B028F06ED018F0952309F05AC05FC011249B
S11324C0EACFC6DFA0F3959FD1F3950F50E0551FD7
S11324D0629FF001729FBB27F00DB11D639FAA2775
S11324E0F00DB11DAA1F649F6627B00DA11D661FC4
S11324F0829F2227B00DA11D621F739FB00DA11DE5
S1132500621F839FA00D611D221F749F3327A00D9E
S1132510611D231F849F600D211D822F762F6A2F3A
S113252011249F5750408AF0E1F088234AF0EE0FBF
S1132530FF1FBB1F661F771F881F91505040A9F7CC
S11325409E3F510570F014C0A6CF5F3FECF3983E58
S1132550DCF3869577956795B795F795E7959F5F33
S1132560C1F7FE2B880F911D9695879597F90895CD
S113257097F99F6780E870E060E008959FEF80EC32
S1132580089500240A9416161706180609060895D5
S113259000240A9412161306140605060895092E3B
S11325A00394000C11F4882352F0BB0F40F4BF2BAA
S11325B011F460FF04C06F5F7F4F8F4F9F4F0895EA
S11325C0283008F027E03327DA01990F311D87FD01
S11325D0916000966105710539F432602E5F3D9378
S11325E030E32A95E1F708959F3F30F08038710574
S11325F0610509F03C5F3C5F3D93913008F08068D1
S1132600911DDF93CF931F930F93FF92EF92192F96
S1132610987F9695E92F96959695E90FFF27E75FA2
S1132620FD4F99273327EE24FF24A701E7010590E6
S11326300894079428F4360FE71EF81E491F511D0D
S1132640660F771F881F991F0694A1F705900794BA
S113265028F4E70EF81E491F561FC11D770F881F67
S1132660991F661F0694A1F70590079428F4F80EA5
S1132670491F561FC71FD11D880F991F661F771F3B
S11326800694A1F70590079420F4490F561FC71F1D
S1132690D81F990F661F771F881F0694A9F7849186
S11326A01095177041F0D695C79557954795F794AF
S11326B0E7941A95C1F7EFEAF1E068941590159143
S11326C035916591959105907FE27395E118F10A32
S11326D0430B560BC90BD009C0F7E10CF11E431F85
S11326E0561FC91FD01D7EF4703311F48A95E6CFAE
S11326F0E894015030F0080F0AF40027021708F498
S1132700202F2395022F7A3328F079E37D932A959D
S1132710E9F710C07D932A9589F6069497956795F5
S1132720379517951794E118F10A430B560BC90B0B
S1132730D00998F023957E9173957A3308F070E36D
S11327407C932013B8F77E9170617D9330F083956C
S113275071E37D9370E32A95E1F71124EF90FF90E4
S11327600F911F91CF91DF91992787FD909508953F
S1132770FC010590615070400110D8F78095909548
S11327808E0F9F1F0895FC0101900020E9F78095AA
S113279090958E0F9F1F0895FB01DC01415050401E
S11327A030F08D910190801919F40020B9F7881B3D
S11327B0990B0895FC016150704001900110D8F705
S11327C0809590958E0F9F1F08950F931F93CF931D
S11327D0DF938C01EB018B8181FD03C00FEF1FEFB1
S11327E01AC082FF0DC02E813F818C819D812817E4
S11327F0390764F4E881F9810193F983E88306C019
S1132800E885F985802F0995892B41F78E819F8171
S113281001969F838E83C801DF91CF911F910F9101
S113282008950F931F93CF93DF93CDB7DEB72E9701
S11328300FB6F894DEBF0FBECDBF0D891E8986E0AA
S11328408C831A8309838FEF9FE79E838D83CE0148
S11328504996AC016F89788DCE01019617DAEF8124
S1132860F885E00FF11F10822E960FB6F894DEBFA4
S11328700FBECDBFDF91CF911F910F910895FA0143
S1132880AA27283051F1203181F1E8946F936E7FAB
S11328906E5F7F4F8F4F9F4FAF4FB1E03ED0B4E09C
S11328A03CD0670F781F891F9A1FA11D680F791FDD
S11328B08A1F911DA11D6A0F711D811D911DA11DEE
S11328C020D009F468943F912AE0269F11243019FE
S11328D0305D3193DEF6CF010895462F4770405D99
S11328E04193B3E00FD0C9F7F6CF462F4F70405D48
S11328F04A3318F0495D31FD4052419302D0A9F7A3
S1132900EACFB4E0A6959795879577956795BA959C
S1132910C9F700976105710508959B01AC010A2E62
S113292006945795479537952795BA95C9F7620F39
S1112930731F841F951FA01D0895F894FFCFF8
S113293ECD1516171819C0A801960A5047455420EC
S107294E002F200032
S9030000FC
