:100000000C9446000C9466000C9466000C946600F8
:100010000C9466000C9466000C9466000C946600C8
:100020000C9466000C9466000C9466000C946600B8
:100030000C9466000C9466000C9466000C946600A8
:100040000C9466000C9466000C9466000C94660098
:100050000C9466000C9466000C9466000C94660088
:100060000C9466000C9466000C9466000C94660078
:100070000C9466000C9466000C9466000C94660068
:100080000C9466000C9466000C94660011241FBE4C
:10009000CFEFD0E4DEBFCDBF11E0A0E0B1E0E0EAF9
:1000A000F1E000E00BBF02C007900D92A030B10755
:1000B000D9F71BBE11E0A0E0B1E001C01D92A03055
:1000C000B107E1F70E94C0000C94CE000C94000030
:1000D00080EC80937C0087E880937A000895ECE7B9
:1000E000F0E090819083833009F1843028F48130EE
:1000F00089F08230A8F409C0853021F18530E0F024
:10010000863031F1873079F529C0ECE7F0E0808165
:10011000808329C0ECE7F0E080818160808323C088
:10012000ECE7F0E08081826080831DC0ECE7F0E0C6
:1001300080818360808317C0ECE7F0E08081846079
:10014000808311C0ECE7F0E08081856080830BC084
:10015000ECE7F0E080818660808305C0ECE7F0E0AA
:10016000808187608083EAE7F0E08081806480831B
:10017000808186FDFDCF809178009091790008956F
:10018000389A0E94680080E00E946F008B359105CC
:1001900010F0409AF8CF88B188B9F5CFF894FFCF26
:00000001FF
