S00B000050574D2E7372656325
S11300000C9446000C9466000C9466000C946600F4
S11300100C9466000C9466000C9466000C946600C4
S11300200C9466000C9466000C9466000C946600B4
S11300300C9466000C9466000C9466000C946600A4
S11300400C9466000C9466000C9466000C94660094
S11300500C9466000C9466000C9466000C94660084
S11300600C9466000C9466000C9466000C94660074
S11300700C9466000C9466000C9466000C94660064
S11300800C9466000C9466000C94660011241FBE48
S1130090CFEFD0E4DEBFCDBF11E0A0E0B1E0E2E2FB
S11300A0F1E000E00BBF02C007900D92A030B10751
S11300B0D9F71BBE11E0A0E0B1E001C01D92A03051
S11300C0B107E1F70E9474000C948F000C940000B7
S11300D0E1EBF0E0808181608083E0EBF0E08081FF
S11300E083688083579A08950E9468001BB880E053
S11300F0E3EBF0E008C08083AFE4B3EC1197F1F7D1
S113010000C000008F5F8F3FB1F78083AFE4B3EC92
S11301101197F1F700C000008150B9F7F4CFF894BB
S1050120FFCF0B
S9030000FC
