S01700004763634170706C69636174696F6E312E737265635B
S11300000C9446000C9466000C9466000C946600F4
S11300100C9466000C9466000C9466000C946600C4
S11300200C9466000C9466000C9466000C946600B4
S11300300C9466000C9466000C9466000C946600A4
S11300400C9466000C9466000C9466000C94660094
S11300500C9466000C9466000C9466000C94660084
S11300600C9466000C9466000C9466000C94660074
S11300700C9466000C9466000C9466000C94660064
S11300800C9466000C9466000C94660011241FBE48
S1130090CFEFD0E4DEBFCDBF11E0A0E0B1E0E4E1FA
S11300A0F1E000E00BBF02C007900D92A030B10751
S11300B0D9F71BBE11E0A0E0B1E001C01D92A13050
S11300C0B107E1F70E946E000C9488000C940000C4
S11300D084B5836484BD18B8399A08950E94680071
S11300E080E0E3EBF0E008C08083AFE4B3EC119769
S11300F0F1F700C000008F5F8F3FB1F78083AFE45A
S1130100B3EC1197F1F700C000008150B9F7F4CFB8
S1070110F894FFCF8D
S9030000FC
